:020000040800F2
:10000000C8040020050100087F1900087B180008BB
:100010007D19000861070008011D000800000000AC
:10002000000000000000000000000000A31900080C
:100030006307000800000000A1190008A5190008C6
:100040001F0100081F0100081F0100081F01000810
:100050001F0100081F0100081F0100081F01000800
:100060001F0100081F0100081F0100081F010008F0
:100070001F0100081F0100081F0100081F010008E0
:100080001F0100081F0100081F0100081F010008D0
:100090001F0100081F0100081F0100081F010008C0
:1000A0001F0100081F0100081F0100081F010008B0
:1000B0001F0100081F0100081F0100081F010008A0
:1000C0001F0100081F0100081F0100081F01000890
:1000D0001F0100081F0100081F0100081F01000880
:1000E0001F0100081F0100081F010008DFF810D0E1
:1000F00000F0C6FA00480047F9220008AFF300807C
:10010000C80400200648804706480047FEE7FEE78F
:10011000FEE7FEE7FEE7FEE7FEE7FEE7FEE7FEE7B7
:100120000D1A0008ED000008202A04DB203A21FA0D
:1001300002F00021704721FA02F3D040C2F1200200
:100140009140084319467047D2B201E000F8012BF4
:10015000491EFBD270470022F6E710B513460A4647
:1001600004461946FFF7F0FF204610BD421C10F868
:10017000011B0029FBD1801A70472DE9FE4F8046F4
:1001800081EA0300C00F0C46009021F0004123F0EB
:100190000045B8EB0200A94105D2404621469046F1
:1001A0001C460B46024623F00040104347D0270D63
:1001B000C7F30A00C3F30A510290401A0190402885
:1001C0006BDAC3F3130040F4801B0098924620B111
:1001D0000023D2EB030A63EB0B0B01985946C0F1E5
:1001E0004002504600F08DF906460D4650465946ED
:1001F000019A00F095F910EB08006141002487EAAC
:10020000115284EAE7731A4340D0009A62B3019A0C
:10021000012A4FEA075215DC001B61EB02014FF087
:10022000004202EA0752CDE90042001C41F580116C
:1002300032462B4600F095F903B0BDE8F08F4046FA
:100240002146F9E7001B61EB0201001C41F5801318
:1002500000185B412018A2F5001747EB030140EAA4
:10026000D570B6196D4111E06D084FEA360645EAC2
:10027000C0754FEA0752001B61EB0201001C41F5FB
:10028000801149084FEA30000019514132462B468F
:1002900003B0BDE8F04F00F055B9009801224000CE
:1002A0000023D0EB020263EBE073009821464FEA93
:1002B000E074B8EB000061EB0401E9E783F0004370
:1002C0005BE781F0004158E72DE9FE4F81EA030426
:1002D00004F0004421F0004100944FF0000B23F0A3
:1002E000004350EA01045ED052EA03045BD0C3F33A
:1002F0000A54C1F30A552C44A4F2F3340194A0FB30
:100300000254C1F3130141F48011C3F3130343F406
:10031000801301FB024400FB034E840A970A44EA5F
:10032000815447EA8357A4FB076802958D0A05FBB1
:1003300007854FEA932C04FB0C542705029D4FEAD6
:10034000065847EA1637B5EB08056EEB070C870E23
:10035000920E47EA811742EA8312A7FB0201B6EB2D
:100360000B0164EB00042B0D43EA0C335E1844EBE5
:100370001C50DA465146E7FB0201C5F313044FEA6D
:100380000B3343EA14534FEA0432019C43EA060359
:10039000A4F10C040294009CCDE900B400F0E1F853
:1003A00003B0BDE8F08F00200146F9E72DE9F04DDC
:1003B00081EA030404F0004B21F0004514464FF09D
:1003C000000A23F0004150EA050220D054EA01025D
:1003D0001DD0C5F30A570246C5F31303C1F313003A
:1003E000C1F30A5640F4801543F48013A7EB0608C6
:1003F000101BD64608F2FD3873EB050002D308F156
:10040000010801E092185B41B8F1000F03DA002007
:100410000146BDE8F08D00204FF480110646844669
:100420000EE0171B73EB050705D3121B63EB0503E7
:1004300006434CEA010C49084FEA300092185B4130
:1004400050EA0107EDD152EA030012D082EA04001B
:1004500083EA0501084305D0101BAB4106D20122F7
:10046000002306E000224FF0004302E06FF001029B
:1004700053101AEB06004CEB085110EB0A0041EB4D
:100480000B01BDE8F04D00F05DB80EB540F2334110
:1004900002910021CDE900110A460B4600F061F8F7
:1004A00003B000BDC1F30A5210B5C1F3130140F20D
:1004B000FF3341F480119A4201DA002010BD40F26E
:1004C00033439A42A2F2334203DC5242FFF72CFE3E
:1004D00010BD904010BD30B50B46014600202022D3
:1004E000012409E021FA02F59D4205D303FA02F541
:1004F000491B04FA02F52844151EA2F10102F1DCA1
:1005000030BD202A04DB203A00FA02F100207047B7
:100510009140C2F1200320FA03F319439040704741
:10052000202A06DBCB17203A41FA02F043EAE073B7
:1005300006E041FA02F3D040C2F1200291400843A4
:100540001946704710B5141E73F1000408DA401CF8
:1005500041F1000192185B411A4301D120F00100E2
:1005600010BD2DE9F04D92469B4611B1B1FA81F2D2
:1005700002E0B0FA80F220329046FFF7C2FF044654
:100580000F4640EA0A0041EA0B0153465A46084327
:1005900013D0114653EA010019D0C8F14002504669
:1005A000FFF7C2FD05460E46504659464246FFF744
:1005B000A8FF084305D0012004E020463946BDE8E5
:1005C000F08D0020054346EAE0762C4337430A9835
:1005D0006305E40AA0EB08000022FD0A44EA475440
:1005E0000A3002D500200146E9E7010510196941EA
:1005F000DDE9084500196941BDE8F04DA2E770B595
:1006000021F0004303430CD0C1F30A550024D5EB7D
:10061000040564EB0403D617AD1AB34102DB0020D6
:10062000014670BD201841EB025170BD0EB5C10FDF
:1006300080EAE0700844CA07002140F233438DE8A5
:100640000E000A460B46FFF78CFF03B000BD00000A
:1006500030B5041E71F1000404DB4FF00044404249
:1006600064EB0101141E73F1000405DB1C464FF01E
:100670000043524263EB04038B4208BF824230BD09
:10068000064C074D06E0E06840F0010394E80700DF
:1006900098471034AC42F6D3FFF72CFD982500089C
:1006A000B825000870B5044600688168C943C907C9
:1006B0001CD1816821F00101816000F093FB0546A7
:1006C0000FE000BF00F08EFB401B022809D9A06A92
:1006D00040F01000A062E06A40F00100E0620120FA
:1006E00070BD20688068C043C007EBD0002070BD9B
:1006F000F8B500260446009600688168C943C9071A
:1007000028D0816841F001018160134813490068D5
:10071000B0FBF1F000E0401E00900028FBD100F09B
:1007200061FB054611E000BF00F05CFB401B0228A6
:100730000BD9A06A40F01000A062E06A40F001000E
:10074000E06284F824600120F8BD20688068C0431E
:10075000C007E9D10020F8BD0C00002040420F0086
:10076000FEE770472DE9F04F8BB0DFF8ECB00024C6
:10077000EA464FF06639394800F0C0F9374800F0D2
:10078000FFF8FFF782FE4F464A465B46FFF79CFDA7
:1007900005460E46314800F011FA2A4633463846DF
:1007A0002F49FFF78BFD0746884600222D4B284630
:1007B0003146FFF789FD3A464346FFF7F7FD0AEB5E
:1007C000C402641CE4B2C2E90001052CD3D39DE845
:1007D0000F00FFF7D2FCDDE90423FFF7CEFCDDE9D3
:1007E0000623FFF7CAFCDDE90823FFF7C6FC002259
:1007F0001D4BFFF7DBFD01F0D1FB07460C4602461F
:100800000B461A481A49FFF75FFD3A462346FFF7A1
:100810005BFD3A462346FFF757FD3A462346154C03
:10082000154F05460E4620463946FFF74DFD224638
:100830003B46FFF7A2FC2A463346FFF79EFC0246E2
:100840000B4600200D49FFF7B1FD0BB04A46BDE84D
:10085000F04F0B4BFFF732BD66664A3F1400002095
:1008600066660A400088C34000001440F9A1BC82BB
:10087000C0FE763E70D5EF2DE36F523F0000F03F93
:1008800066127140F8B50024009490F824202546A3
:10089000012A12D0012280F824204A681F23072A47
:1008A0000DD20668776B521E02EB820293409F4383
:1008B0000B6893401F43776319E00220F8BD066878
:1008C0000D2A0AD2376BD21F02EB820293409F435C
:1008D0000B6893401F43376309E0F76A0D3A02EB58
:1008E000820293409F430B6893401F43F7620A685C
:1008F000072306680A2A0AD3F7680A3A02EB42027B
:1009000093409F438B6893401F43F76008E037692B
:1009100002EB420293409F438B6893401F43376131
:100920000A68102A01D0112A20D1124B02689A427B
:1009300017D193681B0219D4936843F400039360A2
:100940000968102912D10C490C4A0968B1FBF2F16F
:1009500001EB8101490000E0491E00910029FBD113
:1009600004E0816A41F020018162012480F8245072
:100970002046F8BD002401400C00002040420F003A
:100980000068C06C704700002DE9F0414FF000078F
:1009900004003D467ED0A06A002628B9E66284F8AD
:1009A0002460204600F07EF82046FFF77BFEA16A17
:1009B000C90600D420B1A06A40F01000A06269E02E
:1009C000A16A21F4885141F00201A1626268E169E3
:1009D000E3680A4347EA43010A43A1684FF480777A
:1009E000B94209D0012907D05FF00001D4F814C042
:1009F000BCF1010F02D00AE03946F7E7F3B1A36A70
:100A000043F02003A362E36A43F00103E362236837
:100A1000D3F804C02CF4694C4CEA010CC3F804C0B0
:100A200021688B68DFF870C003EA0C0313438B6006
:100A3000A168B9420BD0012909D00CE0DFF85CC0F5
:100A4000A3690CEB43330B4343F40061DFE7218AD6
:100A50000D05A5F580152168CB6A23F470032B439F
:100A6000CB62216889680E4B1940914208D1E66239
:100A7000A16A21F0020141F00101A162BDE8F0810B
:100A8000A06A20F0020040F01000A062E06A40F08E
:100A90000100E0620120F1E7FDF7E1FF00E0FFFF68
:100AA000FE0E1FFF00B585B000210091019102915B
:100AB000039100680E49884218D10E48816941F4BB
:100AC00000718161816901F400710491816941F0D3
:100AD000040181618069694600F0040004900220ED
:100AE000009003200190044800F094F805B000BD88
:100AF00000240140001002400008014070B5044687
:100B000090F8240001280DD0012084F8240020460C
:100B1000FFF7EEFD02004FF0000005D084F824003E
:100B2000104670BD022070BDA16A40F201239943B6
:100B300041F48071A1621F4D23681F49AB4218D157
:100B40000E6816F4702F14D0A66A46F48016A662BA
:100B50000E68760505D5A66A26F4005646F480563A
:100B6000A662A66AF6040AD5E66A26F00606E662DA
:100B700006E0A66A26F48016A6625E68E9E7E062EF
:100B800084F824006FF00200186020688368C3F3C3
:100B90004243072B05D1A84208D1096811F4702FF0
:100BA00004D0816841F480118160B9E7816841F423
:100BB000A001F9E7002801400424014010B50446D3
:100BC00090F82400012807D0012084F82400204652
:100BD000FFF768FD10B107E0022010BDA16A21F403
:100BE000885141F00101A162002184F8241010BD58
:100BF00070B5044600F0F6F80546601C02D00448C3
:100C00000078044400F0EEF8401BA042FAD370BD17
:100C1000000000202DE9F84FDFF890A100220AF132
:100C2000040B144601274FF00F090BF1040E00BF0F
:100C30000B6807FA04F52B40AB4274D1DFF870C1A2
:100C40004E68A6EB0C0866452BD00DDC032E34D085
:100C500005DC36B3012E19D0022E2FD11BE0112E48
:100C600016D0122E2AD119E0B8F5881F19D006DC4B
:100C7000B8F5803F15D0B8F5801F1FD111E0B8F549
:100C8000001F0ED0B8F5041F18D10AE0CA6815E09D
:100C9000CA68121D12E0CA6808320FE0CA680C3236
:100CA0000CE08A682AB1012A4FF0080203D045619E
:100CB00004E0042202E0056100E00022FF2B01D8DD
:100CC000064601E000F104064FEA840501D9A5F1CA
:100CD0002005D6F800C009FA05F82CEA080C02FA3B
:100CE00005F54CEA050CC6F800C04D68ED0057D577
:100CF000304DAE6946F00106AE61AD6924F00306E1
:100D000005F0010500952C4D06EB050CDCF80850AC
:100D1000A6074FEA167809FA08F6B543274EB042FF
:100D200002D1002610E03BE0254EB04201D1012661
:100D30000AE0244EB04201D1022605E0224EB04224
:100D400001D1032600E0042606FA08F62E43CCF86B
:100D500008604D68DAF80060ED03554601D51E4382
:100D600000E09E432E604D68DBF80060AD035D46F9
:100D700001D51E4300E09E432E604D68DEF8006002
:100D8000ED02754601D51E4300E09E432E604D687E
:100D9000AD020E4D2E6801D51E4300E09E432E602D
:100DA000641C102CFFF444AFBDE8F88F0004014030
:100DB0000000111000100240000001400008014036
:100DC000000C014000100140001401400C040140DF
:100DD0008068084000D0012070470AB10161704767
:100DE0000904FBE70148806870470000000000200C
:100DF0000248816802781144816070470000002039
:100E0000074810B5016841F010010160032000F0AF
:100E100067F8002000F006F800F024F8002010BD6C
:100E20000020024070B50D4D04464FF47A712878C9
:100E3000B1FBF0F00A490968B1FBF0F000F066FB85
:100E400048B9102C07D200222146501E00F028F885
:100E500000206C6070BD012070BD0000000000200B
:100E60000C0000200C4808B5816941F00101816146
:100E7000816901F001010091C16941F08051C161B6
:100E8000C06900F0805000900448416821F0E061A2
:100E900041F00071416008BD0010024000000140B7
:100EA000F0B40E4B1B680C46C3F30223C3F10705D5
:100EB000042D00D90425191D072901D2002300E0C3
:100EC000DB1E012606FA05F1491E214099409E408D
:100ED000761E16403143F0BC00F052BD0CED00E030
:100EE000064900F0070208684FF6FF03184040EA81
:100EF0000220034A10430860704700000CED00E038
:100F00000000FA052DE9F84305460078354CC00786
:100F100054D0E0690026C00008D4E06940F0805059
:100F2000E061E069012600F0805000902E480168E1
:100F3000C90512D40168804641F480710160FFF751
:100F400051FF074605E000BFFFF74CFFC01B6428B8
:100F500023D8D8F80000C005F6D5206A10F44070F8
:100F600021D0A98801F4407181421CD0206A1F4918
:100F7000012220F440700A6000220A602062C0074B
:100F800011D0FFF72FFF074641F2883808E000BF75
:100F9000FFF728FFC11B414502D90320BDE8F883B4
:100FA000206A8007F4D5206A696820F440700843FD
:100FB00020621EB1E06920F08050E061287880074F
:100FC00005D56068A96820F440400843606028782F
:100FD000C00605D56068E96820F4800008436060B9
:100FE0000020DBE700100240007000404004424255
:100FF0002DE9F047DFF8548105460E46D8F8000089
:1010000000F00700B0420CD2D8F8001021F0070120
:101010003143C8F80010D8F8000000F00700B042D3
:101020006FD128684A4C810712D5400703D5606804
:1010300040F4E06060602878000703D5606840F401
:10104000605060606068A96820F0F000084360604C
:101050002878C00744D06868012816D02168022883
:1010600016D0890700294CDA616821F00301014399
:101070006160FFF7B7FE6968074641F288300129D1
:101080000ED00229814618D026E021688903E9E7BD
:101090008901E7E7FFF7A6FEC11B494501D918E022
:1010A00081466068C0F381000128F3D118E000BFD9
:1010B000FFF798FEC11B49450BD86068C0F381005B
:1010C0000228F5D10CE000BFFFF78CFEC11B49459B
:1010D00002D90320BDE8F087606810F00C0FF3D14F
:1010E000D8F80010404601F00701B1420BD9016861
:1010F00021F0070131430160006800F00700B042B1
:1011000001D00120E6E72878400705D56068E96846
:1011100020F4E060084360602878000706D5606826
:10112000296920F4605040EAC100606000F036F8A0
:101130006168084AC1F30311515CC8400649086060
:101140000020FFF76FFE0020C4E7000000200240EF
:10115000001002403E2500080C000020044805490C
:1011600000684968044AC1F30221515CC8407047D5
:101170000C000020001002404E25000804480549DC
:1011800000684968044AC1F3C221515CC8407047F5
:101190000C000020001002404E25000812A185B06E
:1011A0000FC98DE80F0014A0144A0068049051681C
:1011B000134801F00C03042B10D0082B0ED1C1F3FF
:1011C0008343C9031DF803000AD5516804AAC1F37B
:1011D0004041515C0A4A5043B0FBF1F005B0704702
:1011E00008494843FAE70000020304050607080916
:1011F0000A0B0C0D0E0F101001020000001002402F
:1012000000127A0000093D002DE9F84F04460078ED
:10121000B94DC00748D06868C0F38100012807D0E5
:101220006868C0F38100022809D16868C00306D548
:101230002868800338D5606800286FD034E0606883
:10124000B0F5803F0BD010B1B0F5A02F11D02868B9
:1012500020F480302860286820F4802002E028688C
:1012600040F480302860606888B1FFF7BBFD064617
:1012700009E0286840F480202860F0E7FFF7B2FD1D
:10128000801B642875D828688003F7D50CE0FFF729
:10129000A9FD064605E000BFFFF7A4FD801B6428FA
:1012A000F0D828688003F7D42078944E80074FF058
:1012B00001094FF000083BD5686810F00C0F07D00B
:1012C0006868C0F38100022809D16868C00306D4A9
:1012D0002868800714D5206901281FD110E02069F3
:1012E000B0B1C6F80090FFF77DFD074605E000BFEE
:1012F000FFF778FDC01B0228C4D828688007F7D5FF
:101300002868616920F0F80040EAC10028600FE019
:10131000C6F80080FFF766FD074606E0E9E000BF7B
:10132000FFF760FDC01B022823D828688007F7D488
:10133000207800072CD57248A169D9B1C0F8009077
:10134000FFF750FD074604E0FFF74CFDC01B0228E5
:101350000FD8686A8007F7D56A484FF4FA510068D9
:10136000B0FBF1F0009000BF0098411E0091FAD24E
:101370000EE080E0C0F80080FFF734FD074604E08F
:10138000FFF730FDC01B022875D8686A8007F7D4C4
:101390002078400760D5E8690027C00008D4E869D4
:1013A00040F08050E861E869012700F0805000902B
:1013B00055480168C90513D40168834641F480711A
:1013C0000160FFF70FFD824606E000BFFFF70AFD50
:1013D000A0EB0A0064284ED8DBF80000C005F5D564
:1013E000E06801280AD008B1052813D0286A20F047
:1013F00001002862286A20F0040002E0286A40F018
:1014000001002862E06841F2883B98B1FFF7EAFCEE
:1014100082460BE0286A40F004002862EEE700BF35
:10142000FFF7E0FCA0EB0A0159455AD8286A80076B
:10143000F6D50CE0FFF7D6FC824605E0FFF7D2FCBC
:10144000A0EB0A0159454CD8286A8007F6D41FB191
:10145000E86920F08050E861E06988B36968C1F309
:101460008101022945D00228C6F8608004D0FFF728
:10147000B9FC044638E034E0FFF7B4FC074604E06A
:10148000FFF7B0FCC01B02282BD828688001F7D4D6
:10149000206AB0F5803F05D16868A16820F400306B
:1014A00008436860D4E908010843696821F47411AD
:1014B00008436860C6F86090FFF794FC044606E0B5
:1014C00015E000BFFFF78EFC001B022809D8286832
:1014D0008001F7D50BE000BFFFF784FC001B02285A
:1014E00002D90320BDE8F88F28688001F4D40020D9
:1014F000F8E70120F6E70000001002400000424239
:10150000800442420C0000200070004010B5401ED4
:10151000B0F1807F01D3012010BD4FF0E024606165
:101520000F21601700F02CFA0020A0610720206135
:10153000002010BD30B590F83C20012A20D00122B7
:1015400080F83C20022380F83D3003685C6824F07A
:1015500070045C6003685C680D682C435C60036821
:101560009C6824F080049C6003689C6849680C4374
:101570009C6080F83D20002180F83C10084630BD7A
:10158000022030BD10B5040003D094F83D0010B126
:1015900007E0012010BD002084F83C00204600F048
:1015A0000DF8022084F83D00211D206800F052FA59
:1015B000012084F83D00002010BD000008B500683F
:1015C000B0F1804F08D10548C16941F00101C16106
:1015D000C06900F00100009008BD0000001002404A
:1015E000022180F83D1001680A6842F001020A6099
:1015F000012180F83D100020704770B5044690F836
:101600003C00012817D0012584F83C50022084F8C2
:101610003D002068826822F0770222F47F428260D7
:101620000868502837D00DDC202859D005DC88B355
:10163000102841D151E0022070BD302853D04028FD
:101640003AD13FE060282ED070280BD0B0F5805FF3
:1016500003D0B0F5005F2FD110E02068816821F041
:10166000070115E0CB68D1E90121206800F028FAD4
:101670002168886840F0770088601DE0CB68D1E978
:101680000121206800F01CFA2068816841F4804143
:10169000816011E01EE0CA684968206800F022FA03
:1016A0005021206806E0CA684968206800F02BFADB
:1016B0006021206800F00EFA84F83D50002084F884
:1016C0003C0070BDCA684968206800F00BFA4021F0
:1016D0002068EFE700212068ECE710212068E9E7A7
:1016E00020212068E6E730212068E3E770B5040098
:1016F00004D094F83900002510B106E0012070BD37
:1017000084F83850204600F023F8242084F839006B
:101710002068C16821F40051C160204600F006FA3B
:101720002068016921F4904101612068416921F03C
:101730002A0141612068C16841F40051C160E5633C
:10174000202084F8390084F83A00002070BD0000A1
:1017500030B585B00024009401940294039400688D
:101760001449884224D11448816941F4804181613F
:10177000816901F480410491816941F00401816132
:1017800080690E4D00F0040004904FF4007000904A
:10179000022001900320039069462846FFF73AFA99
:1017A0002815CDE90004694628460294FFF732FA6D
:1017B00005B030BD00380140001002400008014073
:1017C0002DE9F843044690F839001F4616460D46A9
:1017D000202850D1A5B19EB194F8380001284AD0F4
:1017E000012084F838004FF00008C4F83C80212024
:1017F00084F83900FFF7F6FAA6848146E68426E0ED
:101800000120BDE8F883E08C401EE084A0684B46D0
:10181000B0F5805F4FF000024FF080012046009746
:1018200003D000F03BFAE8B90DE000F037FAC8B990
:1018300028882168C0F308004860206908B16D1C41
:1018400005E0AD1C03E0216815F8010B4860E08C51
:101850000028D8D14B46002240212046009700F0B6
:101860001DFA08B10320CCE7202084F8390084F861
:1018700038800020C5E70220C3E7FEE73EB500241C
:101880000D48009401940B49029401600125C0E9C0
:101890000245446105614FF460214460C161FFF776
:1018A00073F80095CDE9015469460348FEF7EAFF55
:1018B0003EBD0000002401401400002070B586B039
:1018C000002418480094019402940394816941F023
:1018D00010018161816901F010010491816941F079
:1018E00020018161816901F020010491816941F049
:1018F0000401816180690C4E00F004004FF4C04582
:101900000490002229463046FFF767FA012000952F
:10191000CDE901040220039069463046FFF77AF9C9
:1019200006B070BD001002400010014010B586B036
:1019300000241148009401940294039404944FF0FD
:101940008041059401604721C0E901144FF6FF7101
:10195000C0E903148461FFF715FE4FF48050009036
:1019600069460548FFF749FE049404A90248059416
:10197000FFF7E0FD06B010BD44000020FEE7704711
:101980000907090E002806DA00F00F0000F1E02038
:1019900080F8141D704700F1E02080F800147047B3
:1019A00070477047FFF724BA30B593B028216846D6
:1019B000FEF7D1FB14210AA8FEF7CDFB002401207D
:1019C0000F9410941194010412948DE81300049064
:1019D0004FF4E010CDE90810022507956846FFF79F
:1019E00013FC0F20CDE90A056802CDE90C40022165
:1019F0000AA80E94FFF7FCFA4FF4404011900F959F
:101A00000FA8FFF77FFA13B030BD00000D48016842
:101A100041F00101016041680B4A114041600168D9
:101A20000A4A11400160016821F480210160416887
:101A300021F4FE0141604FF41F0181600449C0039D
:101A400008607047001002400000FFF8FFFFF6FE3C
:101A500008ED00E0F0B50268164B174C174D4FF03B
:101A60008047984205D0B84203D0A04201D0A84296
:101A700003D122F070064A683243984205D0B8423A
:101A800003D0A04201D0A84203D122F44074CA6816
:101A9000224322F080044A69224302608A68C262BB
:101AA0000A688262984201D109690163012141619A
:101AB000F0BD0000002C0140000400400008004080
:101AC00010B5846842EA032224F47F440A43224387
:101AD000826010BD826822F070020A4342F0070162
:101AE0008160704710B5036A046A24F0010404623F
:101AF000846924F0F00444EA021423F00A020A4341
:101B00008461026210BD10B5036A23F01003036202
:101B10008369046A23F4704343EA023224F0A00389
:101B200043EA01118261016210BD00002DE9F0411C
:101B3000044600680169E26821F4405111430161E3
:101B40002169A0680843616908432168CA6841F2B5
:101B50000C639A430243CA6020684169A26921F478
:101B60004071114341614C49206864253226884206
:101B70003CD1FFF703FB00EBC00101EB00106168F3
:101B80008900B0FBF1F7FFF7F9FA00EBC00101EBB8
:101B900000106168B0468900B0FBF1F0B0FBF5F0D1
:101BA0006FF01801484307EB800106EB0110B0FB12
:101BB000F5F000F0F006FFF7E1FA00EBC00101EBF1
:101BC000001061688900B0FBF1F0B0FBF5F006EBA6
:101BD0000016FFF7D3FA00EBC00101EB00106168BB
:101BE0008900B0FBF1F7FFF7C9FA3BE0FFF7B6FA5F
:101BF00000EBC00101EB001061688900B0FBF1F758
:101C0000FFF7ACFA00EBC00101EB00106168B046D1
:101C10008900B0FBF1F0B0FBF5F06FF0180148431C
:101C200007EB800106EB0110B0FBF5F000F0F006C9
:101C3000FFF794FA00EBC00101EB00106168890026
:101C4000B0FBF1F0B0FBF5F006EB0016FFF786FAFB
:101C500000EBC00101EB001061688900B0FBF1F7F7
:101C6000FFF77CFA00EBC00101EB0010616889000E
:101C7000B0FBF1F0B0FBF5F06FF01801484307EB53
:101C8000800108EB0110B0FBF5F0216800F00F00B7
:101C900030448860BDE8F081003801402DE9F04112
:101CA000984617460E460446069D1DE0681C1BD04C
:101CB0002DB1FFF797F8A0EB0800A84214D92068CF
:101CC000C16821F4D071C1602068416921F001012F
:101CD0004161202084F8390084F83A00002084F81B
:101CE00038000320BDE8F0812068006836EA000073
:101CF00004D00020B842D9D00020F3E70120F9E752
:101D0000FEE700000FB4084B10B504A902AA03981F
:101D100000F088F8044602A9002000F02DF92046C2
:101D200010BC5DF814FB0000791F00082DE9F0419C
:101D30004F1E00EBC7010446D1E9000115461E46BF
:101D400037F006020DD02A463346FEF7BDFA7F1E55
:101D500004EBC703D3E90023FEF70FFA37F00602BE
:101D6000F1D1022F25D0042F13D0062F18BFBDE8C4
:101D7000F0812A463346FEF7A7FAD4E90A23FEF794
:101D8000FCF92A463346FEF79FFAD4E90823FEF70A
:101D9000F4F92A463346FEF797FAD4E90623FEF70C
:101DA000ECF92A463346FEF78FFAD4E90423FEF70E
:101DB000E4F92A463346FEF787FAD4E90223FEF710
:101DC000DCF92A463346FEF77FFAD4E90023BDE862
:101DD000F041FEF7D2B90000002213461046014937
:101DE000FEF7E4BA0000F03F0122FEF708BC002233
:101DF000134610461146FEF7D9BA02E008C8121F72
:101E000008C1002AFAD170477047002001E001C1E3
:101E1000121F002AFBD1704701490860704700007B
:101E2000100000202DE9FF4F89B09B460446002595
:101E300006E025280BD05A460B999047641C6D1C70
:101E400020780028F5D10DB02846BDE8F08F002796
:101E5000B8460122474900E0074314F8013F203B00
:101E600002FA03F00842F7D120782E2819D114F88D
:101E7000010F47F004072A280ED06FF02F022078B8
:101E8000A0F1300109290CD808EB880102EB4101CF
:101E900000EB0108641CF2E70A98641C50F8048BFC
:101EA0000A9020780028CED0642808D0692806D06F
:101EB00075281ED05A460B9990476D1C58E00A9918
:101EC0004FF00A0901C90A91002802DA40422D2187
:101ED00002E0390504D52B218DF82010012103E003
:101EE000F90704D02021F7E78A4608AE0DE000216B
:101EF000FAE70A994FF00A0901C90A91F7E749463A
:101F0000FEF7E9FA303106F8011D0028F7D1ADEBF4
:101F1000060000F12009780701D44FF00108C845F8
:101F200002DDA8EB090000E000208046002706E063
:101F300008A85A46C05D0B9990476D1C7F1C5745F9
:101F4000F6DB04E030205A460B9990476D1CB8F13F
:101F50000001A8F10108F5DC05E016F8010B5A466E
:101F60000B9990476D1CB9F10001A9F10109F4DC4E
:101F7000641C65E7092801000A68531C0B60107097
:101F800070470000044900220B685A6209684A6AD7
:101F90008242FCD370470000440000202DE9F04D40
:101FA000C84A002490B0914205DA21F000439342E0
:101FB00001D805D120B110B0BDE8F04DFFF714BF36
:101FC000B1F5801F1BDA53EA000209D0002911DAAB
:101FD0000120FFF721FF10B0BDE8F04DFFF707BF6C
:101FE0000220FFF719FFFFF7F7FE10B081F0004164
:101FF000BDE8F08D6FF035043622FEF700FB04EBF0
:102000002152C1F31308B049A2F2FF33414401F455
:10201000801282F07F6103EB225281F040510092E6
:1020200041EA08010022A94BFEF748F9044608F1ED
:102030000200A74EC0F313000D467E44032867D26A
:10204000D6E900232046FEF703FB1ED100980028A6
:1020500002BFD6E9000110B0BDE8F08DFEF7E6FA48
:1020600007460C469B4A9C4BFEF72EF906460D464A
:102070009A4A9B4B38462146FEF726F910B0324665
:102080002B46BDE8F04DFEF778B84FF05532954B32
:1020900020462946FEF718F90022934BFEF711F966
:1020A00006460F4622462B4610461946FEF70CF907
:1020B00032463B46FEF708F9064600980F46F0B157
:1020C000FEF7B4FA80468A46824A834BFEF7FCF854
:1020D00032463B46FEF7F5F822462B46FEF7EEF871
:1020E00005460C467D4A7E4B40465146FEF7ECF8CD
:1020F00010B02A462346BDE8F04DFEF7DFB80B4688
:1021000010B0324620462946BDE8F04DFEF7D6B85D
:1021100000224FF080432046FEF72FF802460B4680
:1021200020462946FEF742F906460F460098FEF77C
:102130007DFACDE9040132463B4610463946FEF7AA
:10214000C3F80C9069480C9A4044019009910B46E1
:102150001046FEF7B9F88246024665488B46C8F13C
:1021600051080B4608F5D72803217844FFF7DEFD18
:1021700052465B46FEF7A8F80A905E480D9152461B
:102180005B4604217844FFF7D1FD099B0C9AFEF7CA
:102190009BF8844601980D9B40EA080860460A9A1D
:1021A000FDF7EBFF83460891B8F1000F4EDD4FF0CD
:1021B000FF3220462946FEF722FA22462B46FEF73A
:1021C00083F8804600988A4660B3DDE90401414AFD
:1021D000414BFEF779F8099100905A464046514626
:1021E000089BFDF7CAFF32463B46FEF76DF8099B98
:1021F000009AFDF7C2FF42465346FEF762F82246B8
:102200002B46FEF75BF804460D46DDE90401334A30
:10221000334BFEF759F810B022462B46BDE8F04D7F
:10222000FEF74CB85A464046089BFDF7A6FF3246DB
:102230003B46FEF749F842465346FEF742F810B0D7
:1022400022462B46BDE8F04DFEF73BB8009840B360
:10225000DDE904011F4A204BFEF736F880468A4626
:102260005A4620462946089BFEF728F832463B4648
:10227000FEF72AF842465346FEF720F822462B4640
:10228000FEF71CF804460D46DDE90401134A144B21
:10229000FEF71AF810B022462B46BDE8F04DFEF7C7
:1022A0000DB80B465A4620462946FEF707F8324637
:1022B0003B46FEF709F810B022462B46BDE8F04D2C
:1022C000FDF7FFBF0000F07F645F09000000F03FF2
:1022D00052050000763C7935EF39EA3D0000E0FE1A
:1022E000422EE63F5555D53F0000E03F86EBF9FF13
:1022F000EA030000E80300008CB0FEF781FDFFF761
:1023000053FBFFF7DBFAFFF711FB1C481A490C22BD
:1023100001604FF41651416000218160C160C0E945
:1023200004128161C161FFF7E1F9FFF7A7FA1348D1
:102330004038FFF755F912A000F0DAF84FF4FA75BB
:1023400009A90AA800F028F80446FEF70BFAFEF7E0
:10235000A9F8C1B2012C0BD100919DF824309DF851
:1023600028200AA101A8FFF7CDFC01A800F0C0F8C1
:102370002846FEF73DFCE3E70038014084000020DA
:102380007561727432205F6F6B210A0025647C7C5A
:1023900025647C7C256400002DE9F34F0127DFF8DC
:1023A0004881BE0383B03146404600F0BCF80022AD
:1023B00031464046FEF711FD1220FEF719FC0122BE
:1023C00031464046FEF709FD2820FFF7DBFD314688
:1023D000404600F09DF8454C002520684562C14606
:1023E00006E031464846FEF7F3FC08B1012703E05A
:1023F0002068406A6428F4D32068416A642903D3C2
:10240000FF2005B0BDE8F08F4562B04604E04146CC
:102410004846FEF7DDFC48B12068406A6428F6D3E0
:102420002068406A642803D30220EAE70127F7E71F
:102430000026EB464FF0000A0BF806502068456274
:1024400006E041464846FEF7C3FC08B1012703E019
:102450002068406A5028F4D32068416A502901D38B
:102460000320CEE7456204E041464846FEF7B0FC53
:1024700060B12068406A7828F6D32068406A80B24C
:10248000642801D8052803D8C0B2BAE70127F4E7C9
:102490001BF806104906090E0BF806102D2803D963
:1024A00041F001000BF806000AF1010ABAF1080F29
:1024B000C4DB761C052EBDDB9DF800109DF80100E5
:1024C0009DF803300A189DF8020003441A449DF851
:1024D0000430D2B2934201D0042092E7039A1170E3
:1024E0000499087038468CE7001001404400002031
:1024F00010B50446FDF73AFE214682B2BDE8104011
:102500004FF47A730148FFF75BB9000084000020A4
:102510001FB50022CDE900120121CDE90212694662
:10252000FEF778FB1FBD1FB5002200910121CDE908
:102530000112022103916946FEF76CFB1FBD0000EA
:102540000000000000000102030406070809000063
:10255000000001020304000004FA97999999D93FF9
:10256000AF788E1DC571CC3F9FC678D0099AC33F06
:10257000935555555555E53F599322942449D23FDB
:10258000DE03CB966446C73F44523EDF12F1C23FA2
:102590000000000000000000B82500080000002036
:1025A00014000000FA1D0008CC25000814000020CB
:1025B000B40400000A1E0008010000001000000022
:0C25C0000000000000A24A04000000001F
:04000005080000ED02
:00000001FF
